:020000040800F2
:10000000C0300020E5010008D91500084B15000894
:10001000811500080513000875490008000000005C
:100020000000000000000000000000004946000839
:100030009D14000800000000931200089926000893
:10004000FF010008FF010008FF010008FF01000890
:10005000FF010008FF010008FF010008FF01000880
:10006000FF010008FF010008FF010008FF01000870
:10007000FF010008FF010008FF010008FF01000860
:10008000FF010008FF010008FF010008FF01000850
:10009000FF010008FF010008FF010008FF01000840
:1000A000FF010008FF010008FF010008FF01000830
:1000B000FF010008FF010008FF010008FF01000820
:1000C000FF010008FF010008FF010008FF01000810
:1000D000FF0100085D470008FF010008FF0100085C
:1000E000FF010008FF010008FF010008FF010008F0
:1000F000FF010008FF010008FF010008FF010008E0
:10010000FF010008FF010008FF010008FF010008CF
:10011000FF010008FF010008FF010008FF010008BF
:10012000FF010008FF010008FF010008FF010008AF
:1001300000F002F800F047F80AA090E8000C8244B2
:100140008344AAF10107DA4501D100F03CF8AFF28F
:10015000090EBAE80F0013F0010F18BFFB1A43F0A5
:10016000010318475C5100007C510000103A24BF85
:1001700078C878C1FAD8520724BF30C830C144BF0C
:1001800004680C607047000000230024002500264E
:10019000103A28BF78C1FBD8520728BF30C148BFEA
:1001A0000B607047662905F00480002070471FB57A
:1001B00000F00CFB04000020002104F08FFEE06042
:1001C0001FBD10B510BD00F01DFC1146FFF7EFFF7D
:1001D00004F008FD00F03BFC03B4FFF7F2FF03BCA2
:1001E00004F0E4FB0948804709480047FEE7FEE7C2
:1001F000FEE7FEE7FEE7FEE7FEE7FEE7FEE7FEE7D7
:1002000004480549054A064B704700000D470008A1
:1002100031010008C02A0020C0300020C02C00207E
:10022000C02C002072B6704762B67047EFF31080A2
:1002300072B6704780F31088704730BF704720BF98
:100240007047B0FA80F0704790FAA0F0B0FA80F0F2
:10025000704790FAA0F07047704700000FB404494F
:1002600010B503AA029800F09FFA10BC5DF814FBC9
:10027000200000202DE9F0474FF0000A894604468F
:10028000C0F820A02046E1688847002876D02528BD
:1002900006D0D4E901219047206A401C2062F1E792
:1002A000E168204600258847C4F81CA006460027C0
:1002B000C4F818A02A2E09D0304604F070FB38B3D9
:1002C00004EB8708303EC8F8186019E059F8041BA1
:1002D000204604EB87029161E1688847012F0646BA
:1002E00018D1E069002820DA25F020051DE0D8F8B3
:1002F000180000EB800006EB40003038C8F818000A
:100300002046E1688847064604F049FB0028EED104
:10031000012F0AD02E2E08D12046E16888477F1C85
:100320000646022F45F02005C4DBA069002803DA49
:10033000404245F00105A061E80701D025F0100515
:10034000B6B1A6F14100192802D8203645F400655F
:100350004A463146204625604D46FFF723FF58B1F7
:10036000012806D0ED1D25F0070000F1080989E7F6
:1003700004E005F1040985E730468AE7206ABDE814
:10038000F087704770477047704770472DE9FF4FFF
:100390000C461E464FF0FF378BB0D2E90001DDF866
:1003A00060800A908A46C1F30A5505B93D4600218E
:1003B00008464FF00000BAF1000F00F4400005DAE3
:1003C00000EB80004FF4400101EA50004FEA9059E1
:1003D000B9F1010F00DDB9460A9850EA4A000ED083
:1003E00044F61050A5F2FF3545432F14B8F1000F25
:1003F0001ED07542291E1EDDC9F100021CE0B8F1B5
:10040000010F4FF0000001D0302103E0F24305E07E
:100410002154401CB042FBDB304600220021215415
:100420000B99C1F80880C1E900200FB0BDE8F08F3A
:10043000BD1B6D1CDEE74A4600DA694206A800F0E3
:1004400067FA06AB93E8070003AB83E80700504662
:100450000A9900F045FB8DE80700A0F500501F3811
:1004600000900398002D0ADD42F21F014A4608441D
:10047000002303A90390684600F0AEFD09E0A0F553
:1004800000504A461F38002303A90390684600F035
:10049000B8FD8DE807000004000C03D04FF0FF30DA
:1004A000410800E01046B8F1000F03D0002200928E
:1004B00015461EE0751E05D400F08CF930326255E9
:1004C0006D1EF9D5B3460122084302D000227F1CDD
:1004D00004E02078302801D100227F1E002A0997ED
:1004E00084D01DE0112D07DA00F074F93032625526
:1004F0006D1C50EA0102F5D1084302D00098C8B142
:100500000EE00021681E05E0235C625C6354225407
:10051000401E491C8142F7DBAB46A81B401E0990D8
:10052000002004F80B000B98099AC0F80880C0E975
:10053000002B7AE711264FF0000857E72DE9F04F1E
:1005400088460446D21D22F0070191B0D1E900018E
:10055000CDE90A0104F00FFA02460B98C00F01D052
:100560002D2007E02068810701D52B2002E0202103
:1005700001EAC000032A099001D0072A05DB0346DF
:100580004146204600F084F90BE12078800601D531
:10059000E06900E00620B8F1650F814606D0B8F1A9
:1005A000660F18D0B8F1670F70D131E00020B9F1B3
:1005B000110F009001DB112301E009F101030AAAE8
:1005C00001A90CA8FFF7E2FEDDE90C70002609F195
:1005D0000105834647E001204B4600904FF000475D
:1005E0000AAA01A90CA8FFF7D1FEDDE90DB00C990C
:1005F0005D46002610B909F101000D18B9EB0500A0
:1006000003D4C0F1FF3609F10105A5EB09002BE089
:10061000B9F1010F01DA4FF001090020B9F1110F12
:100620000090484601DD112300E003460AAA01A913
:100630000CA8FFF7ABFEDDE90C704D4600268346A3
:10064000207800070AD4AB4500DA5D4601A8012DE9
:1006500004DD411911F8011C302907D04F4502DA99
:1006600017F1040F04DA012082460FE06D1EEEE759
:10067000002F02DCED1B3E4403E0781CA84200DDA5
:100680007D1CB81B00F1010A4FF0004720780007DD
:1006900003D4AA4501DB4FF0FF3A0021B7F1004F28
:1006A0000DF143088DF8431024D002202B23002F96
:1006B00001DA7F422D230A21021EA0F1010000DC95
:1006C0005FB197FBF1FC97FBF1F201FB1C7C174635
:1006D0000CF1300C08F801CDEEE7A8F10100037031
:1006E0002188090501D5452100E06521A0F1010817
:1006F00000F8011C09980FA9A1EB0807FF1D00B124
:100700000120411901EBEA70A1693844081A401E22
:10071000A0612078C00602D42046AFF3008009987B
:1007200028B1D4E901219047206A401C206220783A
:10073000C00622D52046AFF300801EE0002E04DB69
:10074000B34502DD01A8805D00E03020D4E901213D
:100750009047206A401C2062761CAAF101005FEAE3
:10076000000A0AD100F032F8C0680168405CD4E9A0
:1007700001219047206A401C2062281EA5F1010536
:10078000DCDC07E0D4E9012118F8010B9047206A6E
:10079000401C2062381EA7F10107F3DC2046AFF3AE
:1007A0000080032011B041E6074B70B50D467B4435
:1007B00000F05BF80446284600F01CF910B14FF039
:1007C000FF3070BD204670BD4743000000487047B1
:1007D0007C2A002030B5B0F10A024FEA900E71F188
:1007E00000034EEA817EB0EB0E0061EB91014FEA0F
:1007F000101E4EEA017E10EB0E0041EB11114FEA84
:10080000102E4EEA016E10EB0E0041EB11214FEA63
:10081000104E4EEA014E10EB0E0041EB1141401814
:1008200041F100014FEAD00040EA41704FEAD101A6
:1008300010EB80054FEA810444EA907444EB010414
:100840006D1944EB0404521BA3414FF0000348BF51
:100850000A3200D530BD401C41F1000130BD00001E
:1008600001694A1C02610878704700B58FB0CDE974
:1008700001310021059105497944CDE90310114664
:100880006846FFF7F7FC0FB000BD0000E5FFFFFF73
:100890002DE9F0411F46044603260168072A01F4AA
:1008A000006004DB08B116A505E016A503E008B159
:1008B00015A500E015A521F010002060A069C01E5C
:1008C000A0610FB1401EA0612046AFF300804FB180
:1008D000D4E9012138469047206A401C2062C01CA0
:1008E000206206E0206AFAE7D4E9012115F8010B3D
:1008F0009047761EF8D22046AFF30080BDE8F08125
:100900004E414E006E616E00494E4600696E6600B3
:100910002DE9F047814616468AB0354878440DC81F
:100920008DE80D0032487844801C03AC0DC884E883
:100930000D0041F69B300844372190FBF1F290FB0B
:10094000F1F5A5F1800501FB12041B3C02D56442C0
:10095000012000E00020DFF898A080460027FA443C
:10096000AAF1BE0A0EE0E0070AD03246684607EB5D
:10097000470101230AEB810100F043FB8DE80700EA
:1009800064107F1C002CEED1194F7F44AE3F19E05C
:10099000E80715D007EB04100DF1180A90E80E00D7
:1009A0008AE80E00C068F04201D1981908903246DA
:1009B000012306A903A800F024FB03AB83E807008A
:1009C0006D10641C002DE3D14FF0010332466946DF
:1009D000B8F1000F03A802D000F0FEFA01E000F029
:1009E00010FBC9E90001C9F808200AB0BDE8F0878A
:1009F00088490000007B00F0800070470048704785
:100A00005C2A00207546FFF7F9FFAE4605006946EF
:100A1000534620F00700854618B020B5FFF7F0FBDD
:100A2000BDE820404FF000064FF000074FF00008EF
:100A30004FF0000B21F00701AC46ACE8C009ACE870
:100A4000C009ACE8C009ACE8C0098D46704710B5D4
:100A50000446AFF300802046BDE81040FFF7BCBB62
:100A60004FF0013C50F8042B51F8043B9A4221D13D
:100A7000A2EB0C03934313EACC1317D150F8042BC9
:100A800051F8043B9A4215D1A2EB0C03934313EAAD
:100A9000CC130BD150F8042B51F8043B9A4209D1E6
:100AA000A2EB0C03934313EACC13DBD04FF000000E
:100AB000704700BFD01A01BAB1FA81F101F01801F4
:100AC00022FA01F0CB40C1F12001DBB2C0B2C01A62
:100AD0002CFA01F3D11A914311EAC311E6D1704700
:100AE0005FEA400C08BF91F0000F4FEA8C234FEAF9
:100AF000C12243EA51514FEA1C5018BF00F5F040A3
:100B00004FEA300018BF41F000415FEA6C5C00F032
:100B10002980BCF1FF3F08BF40F080407047130CB4
:100B200006BF12044FF0100C4FF0000C130E04BF60
:100B300012020CF1080C130F04BF12010CF1040C8B
:100B4000930F04BF92000CF1020CD30F04BF5200AC
:100B50000CF1010C11464FF00002A0F11F00A0EBB8
:100B60000C00704711F0004F08BF704731F0004192
:100B70003FF4D5AF0B0C06BF09044FF0100C4FF03B
:100B8000000C0B0E04BF09020CF1080C0B0F04BF84
:100B900009010CF1040C8B0F04BF89000CF1020C4D
:100BA000CB0F04BF49000CF1010CCCF12003A0EBEA
:100BB0000C0022FA03F302FA0CF241EA030100F1FD
:100BC0000100704720F07F4C80EA030023F07F474C
:100BD000ACEB070303F57C5300F0004003F1FF0387
:100BE0002DE980494FEA154B09B44FEA144325EA31
:100BF0000B4E24EA03480FF2042606EB132749089C
:100C00003E785FEA320203FB0667C7F5000707FB81
:100C100006F64FEA54374FEAD64606F1020607FBBE
:100C2000066CCCF1005C4FEA1C472CEA074C07FB32
:100C300006F40CFB06F504EB15464FEA961634BF96
:100C400000204FF000404FEAD13706FB07FC4FEA87
:100C50001C4C0CFB0BF7D21B03FB0CF761EB0701E1
:100C60000CFB0EF7B0EB074072EB17420CFB08F7DA
:100C700034BFA2EB0742B2EB074261EB17414FEAE8
:100C80000C444FEA910706FB07FC4FEA1C4C0CFB97
:100C90000BF7B0EBC74072EB573203FB0CF734BFD6
:100CA000A2EBC742B2EBC74261EB57310CFB0EF728
:100CB000B0EBC70072EB57720CFB08F734BFA2EB26
:100CC000C702B2EBC70261EB5771039F4FEA816124
:100CD00041EA921104EBCC044FEAD1374FEA826229
:100CE00006FB07FC42EA90124FEA80604FEA1C4C78
:100CF0000CFB0BF7D21B03FB0CF761EB07010CFBA2
:100D00000EF7B0EB074072EB17420CFB08F734BF4D
:100D1000A2EB0742B2EB074261EB17414FEA8C5559
:100D20004FEA910704EB9C2406FB07FC4FEA1C4C9E
:100D30000CFB0BF7B0EBC74072EB573203FB0CF721
:100D400034BFA2EBC742B2EBC74261EB57310CFB99
:100D50000EF7B0EBC70072EB57720CFB08F734BF0D
:100D6000A2EBC702B2EBC70261EB577115EB4C2542
:100D70004FEA816141EA92114FEA82624FEAD1372C
:100D800042EA901206FB07FC44F100044FEA80603F
:100D90004FEA1C4C0CFB0BF7D21B03FB0CF761EB6F
:100DA00007010CFB0EF7B0EB074072EB17420CFB90
:100DB00008F734BFA2EB0742B2EB074261EB1741E1
:100DC00015EB1C154FEA813141EA92414FEA82321C
:100DD00042EA90424FEA80304FEA0C7644F1000438
:100DE00048EA03434EEA0B484FF0000EB2EB080C02
:100DF00071EB030724BF624639464EEB0E0E4FF0EF
:100E0000000B0018524149414BEB0B0BB2EB080CA5
:100E100071EB03077BF1000B24BF624639464EEBB2
:100E20000E0E4FF0000B0018524149414BEB0B0BDB
:100E3000B2EB080C71EB03077BF1000B24BF624699
:100E400039464EEB0E0E51EA020718BF46F0010676
:100E500016EB0E7655F1000254F1000103D5BDE802
:100E60008901BDE80088BDE88901BDE80048B619E0
:100E7000524141EB0101A3F10103704780807F7E65
:100E80007D7C7B7A79787776767574737271717000
:100E90006F6E6E6D6C6C6B6A6A69686867666665B2
:100EA0006464636362616160605F5F5E5E5D5D5C40
:100EB0005C5B5B5A5A5959585857575656555555B1
:100EC0005454535352525251515050504F4F4F4E11
:100ED0004E4D4D4D4C4C4C4B4B4B4A4A4A4949495F
:100EE00048484847474747464646454545444444A1
:100EF000444343434342424242414141002B9C46CA
:100F000030D477002BD01CB54FEA370703B44FF02D
:100F100010004FF01001BAF1000F06D0BCF1000F25
:100F2000DCBF40F0080040F008014FF000000FBCAB
:100F3000BDE810400BF1010BBBF1010F08BF5FEAE8
:100F4000170722BF12F1010211F101014FF0004118
:100F500043F1000300F0004043EA00007047F9D37A
:100F60005708D0E746EA064613F1400F4FEA164607
:100F70001FDD13F1200FDFBF16430A460021203387
:100F80005B42BED0C3F1200746EA064602FA07F7E5
:100F90004FEA164646EA0706C3F1200722FA03F293
:100FA00001FA07F721FA03F14FF0000342EA0702C2
:100FB000A7E746EA020646EA06464FEA164646EA2A
:100FC0000106BCBF46EA0646360C4FF000034FF060
:100FD00000024FF0000194E72DE9804C9A469346B9
:100FE00070B491E8380007C831EA400C48BF34EAD1
:100FF000430C03D5FFF7E6FDFFF780FFF0BCBDE82B
:10100000008C2DE9804C9A46934670B491E83800E4
:1010100007C810F0804F08BF13F0804F03D100F0D5
:1010200005F8FFF76BFFF0BCBDE8008C20F07F47B0
:1010300080EA030023F07F4C07EB0C03A3F57C53FD
:1010400000F00040A3F1FE0392F0000F00F0B38027
:1010500095F0000F00F077802DE901494FEA11402B
:101060004FEA144621EA004800FB06FC24EA064742
:1010700008FB06F607FB08F800FB07F718EB064825
:101080004CEB164C4FEA124B18EB07484FEA15464B
:101090004CEB174022EA0B4E0BFB06FC25EA0647F9
:1010A0000EFB06F607FB0EFE0BFB07F71EEB064ECC
:1010B0004CEB164C4FF000061EEB074E4CEB174B5B
:1010C00018EB0B0840F1000018EB0E0B58EB000872
:1010D00040F100008F1A4FF000013CBFC943661B6E
:1010E00014BFB5EB040C00213CBFC943F61B4FEA0B
:1010F00017444EEA8E0E27EA04454FEA1C4704FBCC
:1011000007622CEA074C05FB07F70CFB05F604FB0E
:101110000CFC16EB074642EB174216EB0C4642EB73
:101120001C421BEB060658EB0202414146EA9E06B2
:1011300001D5BDE80189B619524141EB0101A3F186
:101140000103BDE801894FEA14454FEA114724EA3B
:10115000054621EA074C05FB07F406FB07F70CFBE5
:1011600006F105FB0CFC11EB074144EB17444FEA79
:10117000124711EB0C4144EB1C4422EA074C05FBDF
:1011800007F206FB07F70CFB06F605FB0CFC16EB5B
:10119000074642EB174216EB0C4642EB1C456A1819
:1011A00054F1000148BF7047B619524141EB0101AB
:1011B000A3F10103704795F0000F37D04FEA1142B9
:1011C0004FEA144721EA024624EA074C02FB07F1E2
:1011D00006FB07F70CFB06F402FB0CFC14EB0744C0
:1011E00041EB17414FEA154714EB0C4441EB1C410E
:1011F00025EA074C02FB07F506FB07F70CFB06F692
:1012000002FB0CFC16EB074645EB174516EB0C46AC
:1012100045EB1C42121951F1000148BF7047B61945
:10122000524141EB0101A3F1010370474FEA14451C
:101230004FEA114724EA054621EA074C05FB07F16E
:1012400006FB07F70CFB06F24FF0000605FB0CFC53
:1012500012EB074241EB174112EB0C4251EB1C41E0
:1012600048BF7047921841EB0101A3F10103704799
:1012700018484FF0FF010170002080F309881648DC
:10128000016881F3088815484FF08051016062B60B
:10129000FEE772B6EFF3098028B1203880E8F00F3E
:1012A0000F490968086000B50E4880475DF804EBF7
:1012B0000D480E490A78027009480D490A68026013
:1012C000106890E8F00F203080F309884EF0040E8B
:1012D00062B6704722ED00E00801002004ED00E056
:1012E000000100206D2300089200002093000020E0
:1012F0000401002000B585B0684603F05DF901984F
:1013000005B000BDFEE70000054910B500204860AB
:1013100000F0A6F800F006F8BDE8104000F086B82E
:101320000C0100202DE9F041104D002427462C80AF
:101330006C80AC60EC606C61AC612C61FEF776FF98
:10134000804600266C6100F049F800F057F86869A3
:10135000761C36040744360CF4D0C5E904744046C4
:10136000AC61BDE8F041FEF765BF00000C01002054
:1013700003490969884201D9401A70470020704723
:101380000C01002010B5FEF751FF04494C69FEF72F
:1013900051FF2046BDE81040FFF7EABF0C010020D6
:1013A00010B5FFF7EFFF0446FEF740FF034A0021A8
:1013B0005161FEF73FFF204610BD00000C010020E8
:1013C00010B5FEF733FF04498C69FEF733FF204662
:1013D000BDE81040FFF7CCBF0C01002010B5064C53
:1013E0002088401C2080608810B900F051F8A0606F
:1013F0006088401C608010BD0C01002010B50A4CB4
:101400006088401E0004000C60800CD100F040F8A1
:10141000E060A168401A6169814200D26061A169FF
:10142000814200D2A06110BD0C01002010B5FEF772
:10143000FDFE0446FFF7D2FF1021054800F0A1F899
:10144000FFF7DCFF2046BDE81040FEF7F3BE0000CA
:101450004C2A002001494860704700000C01002020
:10146000094810B5016841F080710160074800210A
:101470004160016841F001010160FFF73BFFBDE8F9
:101480001040FFF7E7BF0000FCED00E0001000E0B7
:101490000148406870470000001000E070470000FD
:1014A000F0B5CA78002502F00F03D20601D58A787C
:1014B00013430A784FF00F0E12F0FF0F4FF00102A6
:1014C0001CD004680F8802FA05F63740B74211D1E4
:1014D0004FEA850C0EFA0CF724EA070703FA0CF41E
:1014E0003C43CF78282F02D0482F02D002E046613B
:1014F00000E006616D1C082DE4D304600C88FF2C0D
:101500001ED944685FF0000606F1080702FA07F5E5
:101510000F882F40AF420FD14FEA860C0EFA0CF71E
:10152000BC4303FA0CF73C43CF78282F00D1456128
:10153000CF78482F00D10561761C082EE4D3446093
:10154000F0BD4161704701617047FEE738B5012188
:10155000102003F019F80F20ADF8000010208DF8CE
:1015600003000320054C8DF8020069462046FFF772
:1015700097FF0F212046FFF7E6FF38BD001001401E
:10158000FEE70A46002100F001B8000010B5002A6D
:1015900021D000281FD000244FEA04035B1C41EA3D
:1015A0000424042BFAD310F0030305D10BE000BF91
:1015B000521E00F8011B5B1C002A0CD0042BF7D331
:1015C00001E010C0121F042AFBD202E000F8011B48
:1015D000521E002AFAD110BD7047000070B50F23CB
:1015E000C47801780122F4B1144C2468457804F4DD
:1015F000E064C4F5E064240AC4F10406E34084789E
:10160000B5401C402C4301F1E021230181F8003456
:10161000007800F01F018A404009800000F1E020BE
:10162000C0F8002170BD01F01F0082404809800011
:1016300000F1E020C0F8802170BD00000CED00E05A
:101640000249084302490860704700000000FA059B
:101650000CED00E07047000002480068002800D050
:10166000004770474800002010B5044600F0BEF85F
:10167000464800210A220170454801704548017022
:101680004548016045480160454801704548017082
:101690004548017045480160454801604548016082
:1016A0004548017045480068B0FBF2F0444A1060BC
:1016B000444A106830B14448006818B1126802C04A
:1016C000521EFCD14148016041480160414801601F
:1016D0004148016041480160414801604148016062
:1016E0004148017001F0DCFC01F08EFD204600F065
:1016F000EDFF2088002847D1204601F0E1FA20883C
:10170000002841D1204601F0E7FA208800283BD18B
:10171000204601F07BFB2088002835D1204601F0CF
:10172000E5FC208800282FD1204601F095FE208876
:10173000002829D1204602F001F92088002823D171
:10174000204601F031FA208800281DD1204601F002
:10175000C9F82088002817D1204602F05BFD2088B8
:10176000002811D1204602F047F8208800280BD12C
:10177000204602F0A3FD2088002805D100F0A4FF38
:10178000BDE81040FFF766BF10BD00005C00002000
:1017900064000020AC0000200001002004010020B3
:1017A000920000209300002094000020A000002060
:1017B000A4000020A8000020B4000020005200086F
:1017C000B0000020DC510008D85100083C00002087
:1017D0004000002044000020480000204C00002071
:1017E0005000002054000020E200002030B5094BDA
:1017F0000020094A0446196801E010C1401C156820
:10180000A842FAD31868054900EB8500001F08605C
:1018100030BD0000D8510008DC510008080100204C
:1018200005480078012805D104490878FA2801D232
:10183000401C087070470000640000205C0000201D
:101840001A4810B5007801282FD1FEF7EFFC184A8E
:101850000446117829B1491E11F0FF00107022D101
:1018600003E0BDE81040FEF7E5BC12480078D0B9AF
:1018700001F004FC10490870104900EB400051F8D9
:1018800020100F4801600F48006881420BD051F8CA
:10189000900F401C08600C480168491C01600B490E
:1018A0004FF0805008602046DBE710BD6400002048
:1018B0005C000020AC000020930000207426002073
:1018C0000401002000010020D800002004ED00E009
:1018D000164810B50078002826D115480078002851
:1018E00022D1FEF7A3FC044601F0C8FB11490870A1
:1018F000114900EB400051F82000104908601049E0
:10190000096888420BD050F8901F491C01600D48AF
:101910000168491C01600C494FF080500860204666
:10192000BDE81040FEF786BC10BD00005C00002042
:10193000AC00002093000020742600200401002049
:1019400000010020D800002004ED00E070B504463E
:101950001248007810B146F662501DE01048007839
:10196000012802D045F6896016E00E4D2878FA2845
:1019700002D345F209200FE0FEF758FC0646FFF7B8
:101980002DFD2878401C287001F006FDFFF736FD7C
:101990003046FEF74FFC0020208070BD5C00002028
:1019A00064000020AC0000202DE9F04116460C46F2
:1019B0000546FEF73BFC0746FFF710FD29460D489C
:1019C0000025012901D0057001E0012101700A48BC
:1019D0000CB1046005E009490A220968B1FBF2F183
:1019E0000160FFF70BFD3846FEF724FC3580BDE8AB
:1019F000F0810000B4000020B00000200052000878
:101A000070B504461848007810B146F6655029E0D4
:101A100016480078012802D045F6896022E0144D6E
:101A2000287890B1FEF702FC0646FFF7D7FC28782D
:101A3000401E10F0FF0028700AD0FFF7DFFC304690
:101A4000FEF7F8FB46F663500CE046F6645009E0FA
:101A500001F0B0FCFFF7D2FC3046FEF7EBFBFFF7DE
:101A600037FF0020208070BD5C0000206400002053
:101A7000AC00002070B50F4D0446287818B145F62B
:101A80008A60208070BD01F0F9FA0B4908700B499B
:101A900008700B4900EB400051F82000094908602C
:101AA0000949086001202870FFF7E2FB43F69920FE
:101AB000E7E700006400002093000020920000206F
:101AC0007426002004010020000100202DE9F041CF
:101AD0000646FEF7ABFB0546FFF780FC2E480024C8
:101AE00004602E4804802E4804802E4804602E484E
:101AF00004602E4804602E4804602E4804602E487E
:101B00000481FFF77BFC2846FEF794FBFEF78EFB73
:101B10000746FFF763FC2948056818E0FEF786FBD7
:101B20000746FFF75BFCC5F8B440C5F8B84045F878
:101B3000784F2C63AC61AC82EC826C62AC62FFF7D4
:101B4000A7FC45F8200FA5F134008481AD6AFFF7AA
:101B500055FC3846FEF76EFB002DDFD1FEF766FB25
:101B60000746FFF73BFC1648056806E0FEF75EFBFC
:101B70000746FFF733FCAC85AD69FFF73FFC3846FD
:101B8000FEF758FB002DF1D102F05EFA02F064FC82
:101B90003480BDE8F0810000780000207200002051
:101BA000C2000020D4000020E8000020F000002047
:101BB00060000020A400002068260020DC00002037
:101BC00098000020F8B504466946244800F0A4FBBC
:101BD000BDF8000058BB6A460021022000F0FAFB65
:101BE000BDF8000018BBFEF721FB0746FFF7F6FB28
:101BF0001B4E00253560FFF701FC3846FEF71AFB47
:101C0000184919480A6803689A4202D9B2FBF3F0EE
:101C100010B90A21B2FBF1F06A46002100F0DAFBAC
:101C200069460E4800F0F2F9BDF8000008B12080C6
:101C3000F8BDFEF7FBFA0746FFF7D0FB0B480C494F
:101C40000560306808600B4901200870FFF7D6FB7B
:101C50003846FEF7EFFA2580F8BD00008429002001
:101C6000C400002000520008EC510008D4000020FD
:101C7000C8000020D000002002480068002800D0E2
:101C8000004770474C0000202DE9FF4F83B0044609
:101C90007248DDE91785DDE910960078DDF854A07B
:101CA000139F10B147F24A102AE04CB1059850B189
:101CB00066B16B48006887420BD246F630601FE081
:101CC00047F2AD101CE047F24F1019E046F62F60C6
:101CD00016E01298B84202D346F6316010E046F2A0
:101CE0007320B9F1200F0BD25FEA090103D0B9F1DB
:101CF0001F0F02D008E05B4900E05B498C4203D033
:101D0000288007B0BDE8F08F204601F027FE4FF095
:101D1000000BA5F800B05FEAC8700AD05FEA8870CF
:101D200007D5304600215A4601E004C0491CB9429B
:101D3000FBD31298CDE9007806EB8005DDE90501BB
:101D40002B46324600F0B0FA0599A1620699E1628D
:101D50000499216284F83790C4F854A0A5602060EB
:101D60005FEA0A0024D0A0651698A76366626060E7
:101D7000A4F83C800020594604EB8002401CD16747
:101D800010F0FF00F8D004F16400149900F0F2FFA5
:101D9000204600F075F8FEF749FA0646FFF71EFBED
:101DA000324D2878401CC0B22870012803D004E0CE
:101DB0002F480068D7E701F0EFFAFFF71FFB304626
:101DC000FEF738FA94F8370001F070F9204601F078
:101DD00061FA204601F084FD26490888401C0880ED
:101DE00025480078012821D0FEF720FA0446FFF7A5
:101DF000F5FA2878401E10F0FF0129700ED101F08D
:101E0000D9FA1E48008848B1FFF7F8FA2046FEF7D5
:101E100011FA07B0BDE8F04F01F09ABAFFF7EEFAF9
:101E200007B02046BDE8F04FFEF704BAFEF7FEF912
:101E30000446FFF7D3FA2878401E10F0FF012970FE
:101E400001D101F0B7FAFFF7D9FA2046FEF7F2F90F
:101E500007B0BDE8F04FFFF73BBD00005C0000207D
:101E6000FC510008A0250020D8240020AC00002050
:101E7000B0000020E000002064000020700000207E
:101E800002490968002900D0084770473C0000203B
:101E90002DE9F041044652480E46007810B147F251
:101EA0004E100AE04F48844202D147F24C1004E041
:101EB0004D48844204D147F24D100880BDE8F081BE
:101EC0005CB9FEF7B3F90546FFF788FA474804689E
:101ED000FFF794FA2846FEF7ADF9FEF7A7F9074693
:101EE000FFF77CFA424D2878401CC0B228700128C8
:101EF00001D101F051FAFFF781FA3846FEF79AF95D
:101F000094F8360008283DD2DFE800F004080C0CF5
:101F10001C080C0C204601F0F1F913E0204602F0F9
:101F200077F80FE0204602F073F894F834000728A1
:101F300008D2DFE800F00704070404040400204688
:101F400001F00FF804F1640000F0FAFE204600F002
:101F500055F8204601F0D6FC26490888401E088026
:101F6000204601F0FBFCFF2084F83600FEF75EF906
:101F70000446FFF733FA2878401E10F0FF0028705F
:101F800021D022E0FEF752F90446FFF727FA28781D
:101F9000401E10F0FF0028700CD101F00BFA16481B
:101FA000008838B1FFF72AFA2046FEF743F901F01E
:101FB000CFF904E0FFF722FA2046FEF73BF946F698
:101FC0002D6030807AE701F0F5F9FFF717FA204627
:101FD000FEF730F900203080BDE8F041FFF778BC13
:101FE0005C000020D8240020A02500200001002053
:101FF000AC000020E00000207000002002490968C9
:10200000002900D008477047400000207FB50D46EA
:102010000446FEF70BF90646FFF7E0F91CB1144839
:102020000068844208D1FFF7E9F93046FEF702F96B
:1020300047F2571028807FBDFFF7E0F93046FEF7E2
:10204000F9F80C48007858B10020CDE9020500905D
:102050000346024601902146074800F077FC7FBD09
:1020600004B029462046BDE8704001F08BBD000059
:10207000000100205C0000205452455302490968C9
:10208000002900D008477047440000202DE9F047A0
:102090008146574814461E460078884610B146F2DD
:1020A000AE1006E0080006D0B1F5004F03D045F6AB
:1020B000256018803DE0002704B12760FEF7B6F8E0
:1020C0008246FFF78BF94B4D2968486CD8B1401E0A
:1020D000804648640CB1086C2060FFF7D9F9296884
:1020E0000A6C801AC1F8A400D1F8A820824201D25B
:1020F000C1F8A800FFF782F95046FEF79BF8378039
:102100004046BDE8F0875FEA084007D5FFF776F95B
:102110005046FEF78FF846F2B01009E036480178D5
:1021200049B1FFF76BF95046FEF784F846F6635065
:1021300030800020E5E701218046017001F02CF994
:10214000FFF75CF95046FEF775F800214B46072271
:10215000084600F067FEFEF769F88146FFF73EF992
:1021600098F80010491E11F0FF0188F8001001D105
:1021700001F020F9FFF742F94846FEF75BF8FFF758
:10218000A7FBFEF753F88046FFF728F9286890F878
:10219000351031B1012916D003291AD046F62E6028
:1021A0001BE074B1006C2060FFF772F929680A6CBB
:1021B000801AC1F8A400D1F8A820824201D2C1F847
:1021C000A80037800AE00CB1006C206046F2A9102C
:1021D00003E004B1276047F2D92030802868446CBE
:1021E000FFF70CF94046FEF725F8204689E7000086
:1021F0005C00002000010020AC0000202DE9F04729
:102200000546274816460F4600781C4610B147F28F
:1022100059100AE046F2D5203FB136B1FEF706F874
:102220008146FFF7DBF81DB104E01880BDE8F087B8
:102230001C4805684FF00008286858B195F83C0024
:10224000C00713D0FFF7DAF84846FDF7F3FF002088
:10225000696A1AE0FFF7D2F84846FDF7EBFFC7F8C6
:10226000008047F25210C6F800800AE0FFF7C6F877
:102270004846FDF7DFFFC7F8008047F25410C6F864
:1022800000802080D2E7401C091D0A68002AFAD08D
:102290003860A96B081A3060A4F80080C6E7000017
:1022A0005C0000200001002010B5029C02EB8402BB
:1022B0004FF0807442E90204164842F80C0C4FF0CB
:1022C000123042F8100CA2F114004FF0023240E933
:1022D00003134FF0113140F8101CD10040F8141CCA
:1022E0004FF0093140F8181C910040F81C1C4FF0C9
:1022F00007314FF0033440F8201C610040F8241CE3
:102300004FF0053140F8281D5100C0E9092440F87C
:10231000041D10BD853C00081FB5104A904202D133
:1023200047F25B1004E00E4A904203D147F25C1082
:1023300008801FBD0B4A127852B10022CDE902215C
:102340000146009213460192074800F0FFFA1FBDB4
:1023500004B0BDE8104001F065BD0000D8240020A5
:10236000A02500205C0000205453555370B515483B
:10237000006800B18047FFF78BF8134C134A2168BF
:102380001268914207D0D1F89830C31A41F8943FAF
:102390008D682B448B60C2F89800FFF701F8216824
:1023A000D1F8B420824201D2C1F8B400084AD1F871
:1023B000B8301068834201D2C1F8B8000020106024
:1023C00070BD00005000002000010020040100202A
:1023D000A80000202DE9F041804636480F461546FA
:1023E000007810B147F2752020E0334C207810B10E
:1023F00046F663501AE047B1022F06D0042F07D0EB
:10240000082F02D045F6256010E0B8F1000F0BD080
:10241000FDF70CFF0646FEF7E1FF2078401CC0B236
:102420002070012805D006E047F27E201080BDE82C
:10243000F08100F0B1FFFEF7E1FF3046FDF7FAFE54
:102440001E4E01212B4630683A4680F83610414630
:1024500001F072FD288898B1FDF7E8FE0546FEF709
:10246000BDFF2078401E10F0FF01217001D100F067
:10247000A1FFFEF7C3FF2846BDE8F041FDF7DABE35
:10248000306800F03BFFFDF7D1FE0646FEF7A6FFE1
:102490002078401E10F0FF00207001D100F08AFF6C
:1024A000FEF7ACFF3046FDF7C5FEFFF711FA00203E
:1024B0002880BCE75C000020AC0000200001002068
:1024C0002DE9F0475C4EDDE90854367816B147F245
:1024D0007520ABE0DFF864A19AF8006016B146F60B
:1024E0006350A3E015F00E0647F27E2945F62567F6
:1024F00005D0022E03D0042E06D0082E07D11BB91A
:1025000012B909B900287DD035F01E0C02D0278001
:10251000BDE8F087C5F3001547F2792C47F278281B
:102520004FF47A773DB142F20F75A94212D900BF3C
:10253000A4F800C0ECE7BB4202D347F27B2075E071
:102540003B2A02D947F27A2070E03B29F0D8632871
:1025500002D804E0B84202D3A4F80080D8E7384D8E
:102560004FF4FA7CC1EB01112D68BCFBF5FC634410
:102570006B43B3FBF7F34FF46167784300EB8100E3
:10258000104400FB0537EFB3FDF750FE8046FEF721
:1025900025FF9AF800005546401CC0B28AF800009A
:1025A000012801D100F0F8FEFEF728FF4046FDF7B4
:1025B00041FEDFF8908001212346D8F80000324622
:1025C00080F83610394601F0B7FC208898B1FDF745
:1025D0002DFE0446FEF702FF2878401E10F0FF0192
:1025E000297001D100F0E6FEFEF708FF2046BDE8A5
:1025F000F047FDF71FBED8F8000000F07FFEFDF7A2
:1026000015FE00E014E00646FEF7E8FE2878401EBE
:1026100010F0FF00287001D100F0CCFEFEF7EEFEB6
:102620003046FDF707FEFFF753F9002020806FE7E3
:10263000A4F800906CE700005C000020AC000020D3
:10264000005200080001002000B585B000F01CF821
:10265000FEF71EFF04AA002103920091CDE90110AC
:1026600006480749002300781A4600EB400001EBBA
:102670008001044800F06AF905B000BD9200002016
:10268000742600205449434B02480068002800D0BB
:10269000004770475400002010B5FDF7C7FD044601
:1026A000FEF79CFE07490878401C0870FEF7A6FE5E
:1026B0002046FDF7BFFDFFF7C7FFBDE81040FFF75D
:1026C000BFB800005C00002070470000034A0021F2
:1026D0001160034A11800180704700007C000020D7
:1026E000800000202DE9F05F9A4690460D46044692
:1026F0000A9FFDF79BFD8346FEF770FE5FEA080028
:1027000024D0012807D0B0F5004F1FD06FF400414E
:1027100018EB010F12D1206A30EA0500C4E9080A5B
:10272000208A04F108064FF0000990B14D4D287839
:10273000401CC0B22870012815D016E0FEF75EFEDE
:102740005846FDF777FD45F625606CE0206A284382
:10275000E4E7FEF753FE5846FDF76CFDA7F800903E
:10276000206ABDE8F09F00F017FEFEF747FE5846CE
:10277000FDF760FD366833E090F88810766801F068
:102780000F0101291BD0022921D004290DD00829CD
:1027900010D0FDF74BFD0446FEF720FE2878401EC2
:1027A00010F0FF0028702AD036E0216AD0F880208F
:1027B000114009E0216AD0F8802011400BE0D0F8E8
:1027C0008010236A0A4699438A4205D007E0D0F870
:1027D0008010226A914311B1524600F047F816B1B9
:1027E000B0680028C8D1FDF721FD0646FEF7F6FDCA
:1027F0002878401E10F0FF00287017D018E000F075
:10280000D9FD1948008838B1FEF7F8FD2046FDF7DC
:1028100011FD00F09DFD04E0FEF7F0FD2046FDF700
:1028200009FD43F6FF20388000209AE700F0C2FD42
:10283000FEF7E4FD3046FDF7FDFC5FEA084001D4F9
:10284000FFF746F8FDF7F2FC0546FEF7C7FD246AE0
:10285000FEF7D4FD2846FDF7EDFCA7F800902046D2
:102860007FE70000AC0000207000002070B500255C
:10287000C0F8841080F8355080F834500446026463
:1028800090F8360008280ED2DFE800F00D0D0404A1
:102890000D0D0A0A204601F067F984F8365002E06F
:1028A000042084F836002046BDE8704000F059BB93
:1028B0000A4C0B4DFDF7BAFC0646FEF78FFD20686B
:1028C000401C20602868401C2860FEF797FD3046B9
:1028D000FDF7B0FCFEF7C0FEECE70000580000205A
:1028E000C400002000B50E4A89B0002111600B22FF
:1028F00005910691CDE907200A480B4A0B4B006869
:1029000012681B680292CDE903011F20CDE9000384
:102910000023074A07A10C48FFF7B6F909B000BD2C
:1029200058000020C0510008BC510008B8510008F0
:10293000B128000875432F4F532D49494920496458
:102940006C65205461736B00D82400202DE9F84F8A
:102950001D46DDE90CB4DDE90AA916460F4680469E
:10296000FDF764FC0090FEF739FD1D481D4A018803
:10297000128891422DD2491C89B201801A480288DE
:102980008A4200D2018019490868C0F80080C0E975
:1029900002760582C0F814A0A0F81890C0F81CB008
:1029A00040680860124801210181124901604160BC
:1029B000002000F07BFB1048007808B10F49087038
:1029C00000202080FEF71AFD0098BDE8F84FFDF7C3
:1029D00031BC0B490888401C088044F25360F0E782
:1029E00070000020C851000872000020680000201C
:1029F00074260020A02500209200002094000020D2
:102A0000740000203EB5374C374B02A9206802689D
:102A1000D51A9A4245D015DC344BD2182DD0344B00
:102A2000D21822D0334BD21832D0334BDA4208D1ED
:102A3000C269CDE90021038B028AC168806800F079
:102A4000F1FF3EBD2D4AAA181ED02D4BD21824D01E
:102A50002C4BDA42F5D1C269CDE90021038B028A01
:102A6000C168806800F04EFB3EBD0091028BC369D7
:102A700041698068FFF736FE3EBD018BC269806800
:102A800002AB00F0F5FC3EBD806801F07BF83EBD76
:102A9000018BC269806802AB21E0806801F0C2F955
:102AA0003EBD19481949007800EB400001EB800059
:102AB00000F09EFC206802AB0021C269144801F0BE
:102AC000EDF814480168491E0160E9D1124909680E
:102AD0000160FEF7DDFC024602AB00210F4801F069
:102AE000DDF83EBD6C0000205449434BADBAB2BE88
:102AF0000DF90BFAF2F8F7FF0006F6FF00F7FDF705
:102B000000FFEFFF03FE0FFE94000020742600205C
:102B1000BC280020FC000020F800002084290020B0
:102B20001D4D1E4C1E4E00BFFDF780FB0746FEF7F5
:102B300055FC208808B3FEF761FC3846FDF77AFBA8
:102B4000FEF7A6FC0746FFF75DFFFEF7A1FC29682C
:102B5000C01B814200D22860FDF768FB0746FEF7E4
:102B60003DFC3068406830602088401E2080FEF7C1
:102B700045FC3846FDF75EFBD6E70A490020088190
:102B80000860486000F0A2FAFEF738FC3846FDF70E
:102B900051FBFEF79DFEC5E7780000207000002085
:102BA0006C00002074260020F0B52F492F4D89B00D
:102BB00000220A80296831B12D4E3188022905D2C0
:102BC00044F2546135E044F2526132E02949002375
:102BD000294F0A60296801F1200410E041F8087BC0
:102BE0005B1C41F8082B9BB241F8042C21F8102BF8
:102BF00041F80C2C21F8082C41F81C4C2034B6F874
:102C000000C06345EAD32B6841F81C3C1B490B60AC
:102C10001B490B601B490A801B490A801B490B6832
:102C200053B11B4B1B4D1C682D68AC4207D244F2BC
:102C30005661018009B0F0BD44F25561F9E7032403
:102C400005920692CDE907401868134B09681B6886
:102C5000CDE903020092CDE9011300230F4A10A130
:102C60001648FFF711F8E5E774000020C45100088A
:102C7000C8510008780000204E4F4E4568000020E3
:102C80006C0000207000002072000020CC51000871
:102C9000D4510008FC510008D0510008212B000835
:102CA00075432F4F532D494949204953522051759F
:102CB000657565205461736B00000000A02500203D
:102CC000034A00211160034A11800180704700000F
:102CD0008400002088000020F0B5164C216859B10E
:102CE000154E318859B189B2491E22688FB200252C
:102CF00002F1100329460EE045F21E7118E045F27C
:102D00001D7115E0E2E802316D1C22F8081BADB21E
:102D100042F8041C1033BD42F4D31160516011819C
:102D2000D160064A2368136033889380D180118173
:102D30000180F0BDE4510008E05100086826002041
:102D400010B5428992B10A4903680C681C60436857
:102D50000B60CB8844891B1BCB808B884489234420
:102D60008B8000214181818101604160104610BD4E
:102D7000682600200181002141818181016041603C
:102D800070470000F0B54489DDE905E70589AC42EC
:102D900002D346F293501EE01B4DAE88CEB12C6894
:102DA000761ED4F800C0C5F800C0AE80EE88761C50
:102DB000B6B2EE80B5F808C0B44500D22E8146897F
:102DC000002556B1DB060ED403681C600460256044
:102DD0000CE045F21D703880F0BD046001234460B2
:102DE0004381256005E043682360446043895B1CA0
:102DF0004381868943899E4200D28381616022811A
:102E0000C4F80CE03D80F0BD68260020034A002194
:102E10001160034A11800180704700008C0000207F
:102E2000900000202DE9F041114D07460C4628681E
:102E30000026194680F8342080F8356000F03AFD0D
:102E400064B1FC6004F1080601223946286800F0EC
:102E500011F83946304600F057F802E02868C68776
:102E6000066320462968BDE8F04100F01BB8000069
:102E70000001002010B5C2870024234601630EE044
:102E80004B6041F8103B641C41F8103BA4B241F880
:102E90000C3C21F8083C41F8043C41F8180C9442E1
:102EA000EED310BD38B14268C1F8C420816889688A
:102EB000096AC161704791F83400022803D00728DD
:102EC00003D004A002E004A000E005A0C1F8C40003
:102ED00070470000200000005461736B2051000017
:102EE0005461736B2053656D0000000005A2C1F8AA
:102EF000C420816811B18968096A00E001A1C1613B
:102F0000704700002000000030B58A68002392F866
:102F1000374002891AB1521C028102680BE001227B
:102F200002814B600B60016014E0956895F83750A2
:102F3000A54203D85268002AF7D107E032B11468DD
:102F400054B1C1E900426160116030BD4B6042681C
:102F50000A605160416030BD1160C1E9003201601A
:102F600030BD70B50646C48F056B07E0E86829469A
:102F7000083000F009F8641EA4B22035002CF5D109
:102F80000020F087306370BD10B502890023012A4C
:102F90000BD00A6862B14C6874B154602260028937
:102FA000521E02814B600B6010BD03604360F6E768
:102FB0004A6813600260F2E753604260EFE7F8B5D9
:102FC0000C46064691F836100025069808293BD293
:102FD000DFE801F03A3A04043A3A202094F8341039
:102FE000032911D0E265A4F86030206436B1204690
:102FF000FFF7B7FF21463046FFF778FF204600F085
:10300000B3FD84F836501BE000902146304600F0B6
:1030100022F8EBE794F83410032916D0E265A4F8FF
:1030200060302064204600F0F3FF36B12046FFF701
:1030300098FF21463046FFF759FF042084F83600F8
:1030400084F8355084F83450F8BD0090214630465D
:1030500000F001F8E6E770B50C6B049DC98F0AE03B
:10306000E668864204D1C4E904022383E56170BDA9
:10307000491E89B220340029F2D170BD10B5002458
:10308000064802E02034E4B2001D01680029F9D0AE
:103090000846FDF7D6F82044C0B210BD3800002025
:1030A00001490020086070473800002000F01F022E
:1030B00041090120C2F11F029040034A52F8213019
:1030C000034342F8213070473800002000F01F020F
:1030D00041090120C2F11F029040034A52F82130F9
:1030E000834342F82130704738000020034A002112
:1030F0001160034A11800180704700009800002091
:103100009C0000202DE9FF4F83B01F46DDE9109A97
:1031100093460646FDF78AF80546FEF75FF9384CF8
:103120002078401CC0B22070012801D100F034F991
:10313000FEF764F92846FDF77DF8358A06F10800A8
:103140001DB1B90530D500683CE0F80601D4002374
:1031500000E01023CDE9009A5A4606F120000499B8
:10316000FFF710FEFDF762F80546FEF737F9207805
:10317000401E10F0FF0121700ED100F01BF9214814
:10318000008848B1FEF73AF92846FDF753F807B032
:10319000BDE8F04F00F0DCB8FEF730F907B0284684
:1031A000BDE8F04FFDF746B8006801255B46D0E961
:1031B0000181CDF800903046049AFFF700FF6D1EA4
:1031C0004046ADB2002DF1D1FDF730F80546FEF7CF
:1031D00005F92078401E10F0FF00207001D100F0AA
:1031E000E9F8FEF70BF92846FDF724F8380401D476
:1031F000FEF76EFB0021AAF8001007B0BDE8F08FC3
:10320000AC000020700000200020074B014600BFEA
:1032100000EB400203EB8202401C11811160C0B23E
:1032200051602028F4D370477426002010B504465E
:1032300090F83700FFF73AFF074994F8370009780C
:103240008842204603D1BDE8104000F023B8BDE815
:10325000104000F003B800009200002090F83710F2
:103260000B4A01EB410102EB810100220B8943B1C2
:103270005B1C0B810B68C0E903320A6810610860AF
:10328000704701230B81C26002610860486070478B
:103290007426002090F837100A4A01EB410102EB36
:1032A000810100220B893BB15B1C0B81C2604A6823
:1032B0000261D0604860704701230B81C2600261E7
:1032C0000860F7E77426002010B50289002A14D0A0
:1032D000012A12D00021022A07D0D0E90024D368A5
:1032E0001961C2E90314E26005E0D0E90023C2E9F4
:1032F0000313C3E90321C0E9003210BD70B50546D0
:1033000090F83700114900EB400001EB8001D5E94E
:103310000302002442B10B895B1E0B81D06090B187
:1033200002612C61EC6070BD28B10A89521E0A81CD
:1033300004610860F5E70C810C604C6095F837007B
:10334000FFF7C4FEEDE74A60EBE7000074260020BB
:1033500010B5FCF76BFF0B4A002111700B4A0A49AC
:10336000116051F8902F521C0A6009490A68521CDA
:103370000A60084A4FF080511160BDE81040FCF728
:1033800059BF000093000020A02500200401002068
:10339000D800002004ED00E0044810B500780128B2
:1033A00003D1FEF775F80249086010BDAC0000209B
:1033B000A00000200A4810B5007800280ED1FEF7C2
:1033C00067F808490968401A07490A68824200D22A
:1033D000086006490A68824200D2086010BD0000F9
:1033E000AC000020A0000020A4000020A8000020C5
:1033F00070B5044614480078012824D1FCF716FF64
:103400000546FDF7EBFF2168B1B11048814213D0AA
:103410008A6D12B1521E8A650ED1208902280BD303
:103420000B48007840B92046FFF74EFF2068416DF9
:1034300009B9084909688165FDF7E0FF2846BDE83C
:103440007040FCF7F7BE70BDB4000020D824002007
:10345000AC000020B0000020034A00211160034AA4
:103460001180018070470000B8000020BC000020DF
:103470002DE9F84F1E46904689460446FCF7D6FED5
:103480000090FDF7ABFF208A04F108074FF0000B16
:1034900050B1DFF8BCA09AF80010491CC9B28AF8F4
:1034A000001001291AD01BE0256A681C0CD06D1C85
:1034B000C4E90858FDF7A2FF0098FCF7BBFEA6F888
:1034C00000B02846BDE8F88FFDF798FF0098FCF79C
:1034D000B1FE46F6C55030800020F3E7FFF75CFFF1
:1034E000FDF78CFF0098FCF7A5FE5FEA895002D536
:1034F0003D893F680CE03F6801250023B9687F687B
:103500001A462046CDF80080FFF759FD6D1EADB27A
:10351000002DF2D1246AFCF789FE0546FDF75EFF17
:103520009AF80000401E10F0FF008AF8000001D158
:10353000FFF740FFFDF762FF2846FCF77BFE5FEADE
:10354000094001D4FEF7C4F9A6F800B02046B9E757
:10355000AC0000200EB5964C964E2068450004E065
:1035600028466A460021FEF735FF30780128F7D15A
:103570006846FEF7ABFA904822680168914206D986
:103580000A462168B2FBF1F15FEA010803D1006845
:103590000A21B0FBF1F8DFF824B2894F42F2107A29
:1035A0005FF00006FDF774FF0190FDF709FF854904
:1035B0000860FCF73BFE0546FDF710FF8248834C90
:1035C000016821600660FDF719FF2846FCF732FE0E
:1035D0007F48236802689A422BD97E48824202D2F1
:1035E0005046012115E07C48824203D24FF47A70A4
:1035F0000A210EE07948824202D26420014608E0A6
:103600007748824203D20A204FF47A7101E0012008
:103610005146B2FBF1F15843B0FBF1F0AAEB0000C8
:10362000704980B2ABF800000A88824203D2088059
:1036300001E0ABF800A0FEF71FFB0024FCF7F6FD4D
:103640008146FDF7CBFE3D6842E000BFFCF7EEFD92
:103650000290FDF7C3FEDFF8909199F80010491C25
:10366000C9B289F80010012901D1FFF795FEFDF7D5
:10367000C5FE0298FCF7DEFDD5F89C00C5E9276081
:10368000FCF7D4FD0290FDF7A9FE99F80010491E41
:1036900011F0FF0189F800100CD1FFF78BFE5348A1
:1036A000008838B1FDF7AAFE0298FCF7C3FDFFF7CA
:1036B0004FFE04E0FDF7A2FE0298FCF7BBFD55F8B3
:1036C000A00F0444FCF7B2FD8146FDF787FE2D6A8A
:1036D000FDF794FE4846FCF7ADFD002DB6D12CB3A6
:1036E0003C48844202D25546012015E03A488442C3
:1036F00003D24FF47A750A200EE03848844202D291
:103700006425284608E03648844203D20A254FF44F
:103710007A7001E001255046B4FBF0F08146FCF7D9
:1037200085FD0290FDF75AFE3C6822E0002501204D
:10373000F4E700BFD4F8A0006843B0FBF9F080B212
:10374000504500D95046A4F88C00B4F88E10814240
:1037500001D2A4F88E0004F1AC026B46111D204684
:10376000FEF74CFDFCF762FD0290FDF737FED4F842
:10377000C040FDF743FE0298FCF75CFD002CD9D158
:103780001B480178012903D106706846FEF79EF9AF
:10379000FDF77EFE0199401A16490A68824200D25E
:1037A00008606A4600214046FEF714FEFAE6000073
:1037B000EC510008D000002000520008C00000209A
:1037C000DC00002060000020C4000020CC000020AD
:1037D000C8000020801A060000093D00005A62025D
:1037E0000084D717C2000020AC0000207000002029
:1037F000BE000020D400002030B51D4A89B0002151
:1038000011601C4A11601C4A11601C4A11701C4A4C
:1038100011701C4A136843B11B4B1C4D1C682D686A
:10382000AC4205D246F62C6108E046F62B6105E075
:10383000174C25781F2D04D346F62A61018009B064
:1038400030BD032505910691CDE9075011481B684D
:1038500012680068CDE90120CDE90331207800909D
:1038600000230D4A0DA11248FEF70EFAE7E700000B
:10387000C4000020CC000020C8000020D0000020A0
:10388000BE000020F0510008F8510008FC5100086B
:10389000E8510008F45100085535000875432F4FD2
:1038A000532D4949492053746174205461736B004E
:1038B000F427002038B50446022531B16B460222B8
:1038C00000F03AFBBDF8000028B184F836502046DD
:1038D000FFF714FD38BD032084F83600F7E7000039
:1038E000074B0022C0F8BC20196829B1C0F8C010ED
:1038F000C1F8BC0018607047C0F8C020FAE70000AB
:10390000DC000020D0E92F2100234AB181B1C2F8A8
:10391000C010C1F8BC20C0F8C030C0F8BC3070473F
:10392000054A116009B1C1F8BC30C0F8C030704719
:10393000C2F8C030F1E70000DC000020044A00219A
:103940001160044A1180044A116001807047000030
:10395000DC000020E0000020D800002070B5002529
:10396000056085604560C560056145610446856107
:1039700029A0C4E907506562A562E5622563E58771
:103980002564E565A4F86050002104F16400FFF7A8
:10399000F1F96567A567C4F88050A4F88850002045
:1039A000C4F8845004EB8001401CCD6710F0FF0088
:1039B000F8D06564C4F8A450C4F8A850A56384F88E
:1039C0008A50C4F8B050C4F8AC50A5874FF00040FE
:1039D000C4E9120525656565A565A4F88C50A4F8B1
:1039E0008E50C4F89050C4F894503434FDF750FD14
:1039F000C4E91905C4F88050C4F8845004F8015B88
:103A0000202004F8015B04F8015B04F8850B04A096
:103A100020C4C4E9005070BD3F5461736B000000C6
:103A2000200000002DE9FC5F9946DDE90C76924606
:103A30008B460546FCF7FAFB8046FDF7CFFC474C6A
:103A40002078401CC0B22070012801D1FFF7A4FCEF
:103A5000FDF7D4FC4046FCF7EDFB0DB94048056886
:103A60000020308095F83600DFF8F880082852D220
:103A7000DFE800F00404262604042626CDE90076BB
:103A80004B465246594605F16400FFF77BF9FCF7B7
:103A9000CDFB0546FDF7A2FC2078401E10F0FF018B
:103AA000217031D1FFF786FCB8F8000060B3FDF754
:103AB000A5FC2846FCF7BEFBBDE8FC5FFFF748BC51
:103AC00095F834000228D9D153465A462946002099
:103AD0000097FFF774FAFCF7A9FB0546FDF77EFC9B
:103AE0002078401E10F0FF01217001D1FFF762FC29
:103AF000FDF784FC2846FCF79DFB5FEA09402AD4C9
:103B0000BDE8FC5FFDF7E4BEFDF778FC2846BDE8A4
:103B1000FC5FFCF78FBBFCF789FB0546FDF75EFCFD
:103B20002078401E10F0FF0020700CD1FFF742FCFF
:103B3000B8F8000038B1FDF761FC2846FCF77AFBC5
:103B4000FFF706FC04E0FDF759FC2846FCF772FB82
:103B500046F62D603080BDE8FC9F0000AC000020E0
:103B6000000100207000002010B5044600F050FA5B
:103B700094F83600400704D42046BDE81040FFF713
:103B800055BB10BD2DE9F0410D460446FCF74EFB38
:103B90000746FDF723FC00262E8094F836000828FF
:103BA00064D2DFE800F0040404040D394955FDF740
:103BB00025FC3846FCF73EFB47F25310288037E0DF
:103BC0002F4D2878401CC0B22870012801D1FFF782
:103BD000E3FBFDF713FC3846FCF72CFB94F88A0056
:103BE000401E10F0FF0084F88A0004D184F836608B
:103BF0002046FFF7B9FFFCF719FB0446FDF7EEFB83
:103C00002878401E10F0FF01297001D1FFF7D2FB88
:103C1000FDF7F4FB204609E094F88A00401E10F0FE
:103C2000FF0084F88A001BD101200EE0FCF702FBA4
:103C3000BDE8F041FDF74CBE94F88A00401E10F03C
:103C4000FF0084F88A000BD1022084F8360007E0D8
:103C500094F88A00401E10F0FF0084F88A0003D018
:103C6000FDF7CCFB3846E1E70320EEE7FDF7C6FBA6
:103C70003846FCF7DFFA46F62D602880BDE8F08173
:103C8000AC000020044808B50068FEF7F7F9694663
:103C90000020FEF7FDF808BD000100202DE9F84FD7
:103CA000984691468B460646FCF7C0FA0546FDF756
:103CB00095FB594C2078401CC0B22070012801D1DE
:103CC000FFF76AFBFDF79AFB2846FCF7B3FA0EB93B
:103CD000524806680020524FC6F84090A8F80000ED
:103CE00096F8360046F6C55A082872D2DFE800F08A
:103CF00033332F2F33332F2FFDF780FB2846FCF76C
:103D000099FAFFF725FB04E0FDF778FB2846FCF75E
:103D100091FAA8F800A00020BDE8F88F6D1C75642A
:103D2000FCF784FA0646FDF759FB2078401E10F098
:103D3000FF00207047D1FFF73DFB3888F0B3FDF757
:103D40005DFB3046FCF776FAFFF702FB62E096F87F
:103D50003400072813D0756C681CDFD1FCF766FAB5
:103D60000546FDF73BFB2078401E10F0FF00207059
:103D7000CAD1FFF71FFB38880028C5D0BCE7002355
:103D80001A4631461846CDF80090FFF718F9756CC1
:103D9000FCF74CFA0646FDF721FB2078401E10F098
:103DA000FF00207001D1FFF705FBFDF727FB304630
:103DB000FCF740FA5FEA0B402CD401E003E008E096
:103DC000FDF786FD26E0FDF719FB3046FCF732FAD9
:103DD00020E0FCF72BFA0546FDF700FB2078401E9B
:103DE00010F0FF0020700BD1FFF7E4FA388838B1EB
:103DF000FDF704FB2846FCF71DFAFFF7A9FA04E0DB
:103E0000FDF7FCFA2846FCF715FA46F62D60A8F8EF
:103E10000000002528467FE7AC00002000010020BC
:103E2000700000202DE9F0410D460446FCF7FEF934
:103E30000746FDF7D3FA334804B9046801683248ED
:103E40008C4209D1017839B1FDF7D8FA3846FCF730
:103E5000F1F946F6635052E00021298094F83610BB
:103E60000126082944D2DFE801F0043133393B3B15
:103E70003B3B05460078401CC0B22870012801D1A8
:103E8000FFF78AFAFDF7BAFA3846FCF7D3F90420AF
:103E900084F8360084F88A602046FFF72FFAFCF792
:103EA000C5F90446FDF79AFA2878401E10F0FF0184
:103EB000297001D1FFF77EFAFDF7A0FA4FEA04005E
:103EC000FCF7B8F9BDE8F041FDF702BD052000E0C0
:103ED000062084F8360084F88A6005E00720F8E7B9
:103EE00014F88A0F401C2070FDF788FA3846E7E77F
:103EF000FDF784FA3846FCF79DF946F62D602880D8
:103F0000BDE8F08100010020AC00002010B50020C9
:103F10000146074C074B06E004EBC002401C116051
:103F20009180D18080B21A889042F5D310BD0000F4
:103F3000C821002014520008F0B5324C47F27E260A
:103F400025680024042A08D0B1B32E4E082A36680A
:103F50000E440BD0C0E9136115E04A1B521E12F546
:103F6000803F2AD8521CC0E913120CE0826C0A442C
:103F7000571B7F1E8F4201D2C26400E0C664C16C31
:103F80004A1B02658164204AC16C1288B1FBF2F6BB
:103F900002FB16111D4A89B202EBC102918889B158
:103FA0001168F1B1CE6C761B0E65076DB74212D960
:103FB0004E6966B13146F5E7FFE7C4640465C46144
:103FC0001E80F0BD44618461012110600BE0C0E9F6
:103FD0000541486105E08D6975B1C0E90515686165
:103FE00088619188491C9180D58889B28D4200D220
:103FF000D180C2611C80F0BDC0E9051488611060E9
:10400000EFE70000E400002014520008C82100205F
:1040100010B5C269002A15D00021016513688342DA
:1040200004D14369136033B1996104E0D0E90534E8
:10403000636103B19C6141618161C161C164908828
:10404000401E908010BD000010B500200446064BB5
:10405000064A04E003EBC001401CCC8080B211880A
:104060008842F7D310BD0000C82100201452000878
:104070002DE9F05FFCF7DAF80446FDF7AFF9554D8E
:104080002878401CC1B22970012901D1FFF784F9B9
:10409000FDF7B4F92046FCF7CDF8FDF7F9F9DFF8A4
:1040A000388107464D49D8F800004FF00009401C00
:1040B000C8F8000009884FF0030AB0FBF1F201FBD9
:1040C0001200474980B24FF0040B51F8304074B3EE
:1040D00094F836006669082851D2DFE800F05004F1
:1040E000501150295036E06CD8F80010421A226561
:1040F000884246D184F836902046FFF735FD3EE0F1
:10410000E06CD8F80010421A2265884239D1C4F810
:104110005C90A4F86090FDF7BBF920642046FEF7A0
:1041200020FF2046FFF720FD84F8369023E028E0AA
:10413000E06CD8F80010421A2265884221D184F838
:1041400036B02046FFF764FF19E0E06CD8F80010A5
:10415000421A2265884214D1C4F85C90A4F8609099
:10416000FDF796F920642046FEF7FBFE2046FFF798
:104170004FFF84F836B084F835A084F83490344684
:10418000A5E7FDF785F91749C01B0A68824200D2EE
:104190000860FCF74BF80446FDF720F92878401E2C
:1041A00010F0FF0129700DD1FFF704F90E480088C7
:1041B00040B1FDF723F92046FCF73CF8BDE8F05F7D
:1041C000FFF7C6B8FDF71AF92046BDE8F05FFCF727
:1041D00031B80000AC000020E400002014520008B8
:1041E000C8210020E8000020700000201CB5084C09
:1041F00000216B4601AA0846FDF748FFBDF8000004
:104200000028F5D120780128F2D1FFF731FFEFE740
:104210006400002030B504461A4889B000250560C6
:1042200019480560FFF772FE1848016841B1184946
:10423000184B0A681B689A4205D247F2132008E01F
:1042400047F2122005E0144A13781F2B04D347F2DB
:104250001120208009B030BD0B2305950695CDE9CE
:1042600007340E4B096800681B68CDE90103CDE9EE
:104270000315107800900023094A0AA10E48FDF7A3
:1042800003FDE7E7E4000020E800002008520008F2
:1042900010520008FC510008045200080C5200089B
:1042A000ED41000875432F4F532D4949492054696A
:1042B000636B205461736B00BC28002030B52A4A20
:1042C00089B00021294B1160294C2A4A1D681DB173
:1042D0002468B4FBF5F303E023680A24B3FBF4F38A
:1042E00013601A46244B274D274C1A60234A11604D
:1042F000234A1160002206E005EBC203521C99809C
:10430000D98092B2196023889A42F5D31F4B1A685C
:1043100042B11F4A1F4D14682D68AC4205D247F2C6
:10432000483108E047F2473105E01B4C25781F2D46
:1043300004D347F24631018009B030BD0B25059109
:104340000691CDE907501068144A1B681268CDE940
:104350000301CDE90132207800900023104A11A119
:104360001648FDF791FCE7E7EC0000201852000822
:1043700000520008F8000020FC000020F40000209B
:10438000F000002050240020285200081C52000891
:1043900024520008FC510008165200082052000860
:1043A0008144000875432F4F532D494949205469D2
:1043B0006D6572205461736B000000008429002039
:1043C00070B5022280F82A20204A012914681ED0E4
:1043D000016AE1B11E4A214481611288B1FBF2F306
:1043E00002FB13121B4B92B203EBC20200231568AF
:1043F0007DB1091BC1611168D1B18D692D1BCD61E2
:10440000C669AE420ED90D6945B12946F5E7416A44
:10441000E0E703614361106001200BE0C0E9043173
:10442000086105E04C6964B1C0E904142061486189
:104430009088401C9080D18880B2814200D2D08088
:1044400070BDC0E9041348611060F1E7F40000207A
:10445000285200085024002010B500200446064BC6
:10446000064A04E003EBC001401CCC8080B21188F6
:104470008842F7D310BD00005024002028520008C5
:104480001CB5DFF89090DFF890A0244DDFF890B0D5
:1044900000216B4601AA0846FDF7F8FD6846FDF7C6
:1044A00055FAFCF7F5FF064628684FF00308401C54
:1044B0002860B9F80010B0FBF1F201FB120080B2E5
:1044C0005AF83040C4B1A06929682769884213D1DD
:1044D000204600F027F8208D022808D084F82A8092
:1044E000A26812B12046E16890473C46EAE7012104
:1044F0002046FFF765FFF3E7FCF7CAFF841B684619
:10450000FDF77EFADBF80010A142C1D2CBF80040E3
:10451000BEE700002852000850240020F4000020CC
:10452000F000002010B5104A81691288B1FBF2F347
:1045300002FB13110D4A89B202EBC1020023146879
:104540000169844203D1116029B14B6103E04469E0
:10455000216101B14C61012180F82A10036143619E
:104560009088401E908010BD2852000850240020E2
:10457000044A0029116901D0014300E0814311611F
:104580007047000000100240044A0029916901D0E0
:10459000014300E081439161704700000010024038
:1045A000044A0029D16801D0014300E08143D16071
:1045B000704700000010024030B51F494A6812F0F1
:1045C0000C031E4A03D0042B01D0082B21D002601B
:1045D0004A680F231A4C03EA1212A35C0268DA40FD
:1045E00042604B68072505EA1323E35C22FA03F3D4
:1045F00083604B6805EAD323E35CDA40C260496814
:10460000032303EA9131231F595CB2FBF1F10161ED
:1046100030BD4A684B6802F470124FF0020413F484
:10462000803F04EB924202D04B689B0301D5054BBF
:1046300000E0024B5A43CAE70010024000127A0021
:104640002800002000093D00704700000CB5002143
:10465000264801910091026842F4803202604FF4D2
:10466000A063026802F400320092019A521C019287
:10467000009A12B9019A9A42F3D10268920333D593
:10468000012100911A490A6842F010020A600A6882
:1046900022F003020A600A6842F002020A604168DE
:1046A000416041684160416841F480614160416816
:1046B00021F47C114160416841F4E81141600168D6
:1046C00041F08071016001688901FCD5416821F0E9
:1046D00003014160416841F0020141604168C1F35A
:1046E00081010229FAD10CBD00910CBD00100240DD
:1046F000002002404FF0E0210428086903D020F098
:1047000004000861704740F00400FAE70F4810B554
:10471000016841F00101016041680D4A11404160AA
:1047200001680C4A11400160016821F48021016098
:10473000416821F4FE0141604FF41F018160FFF7E1
:1047400085FF05494FF00060086010BD0010024071
:104750000000FFF8FFFFF6FE08ED00E070B5FDF782
:104760005FF8164C40F22551204600F071F8E0B198
:10477000204600F0FBF8C2B2114801880B0414D4A3
:104780004C044FF0000304D50A2A0DD141F4004136
:1047900011E00D2A0DD0C1F30D040A4D491C89B258
:1047A0002A550180C72900D90380BDE87040FDF774
:1047B00047B841F480410180F7E70000003801402C
:1047C0001C000020800F00200029818902D041F4C4
:1047D000005101E021F4005181817047174910B563
:1047E00088420AD101218C032046FFF7D9FE2046DA
:1047F000BDE810400021FFF7D3BE1149884202D125
:1048000001214C0410E00F49884202D101218C049F
:104810000AE00D49884202D10121CC0404E00B4991
:1048200088420AD101210C052046FFF7A1FE20464F
:10483000BDE810400021FFF79BBE10BD00380140CD
:104840000044004000480040004C00400050004040
:1048500030B501F01F0201240025C1F3421304FA10
:1048600002F2012B0FD0022B0FD0838A4FEA1121C5
:104870000088134204FA01F400EA040001D000B1F8
:104880000125284630BD8389F0E7038AEEE710B59D
:10489000C1F3421301F01F040121A140012B07D0F5
:1048A000022B07D01430002A026805D00A4304E026
:1048B0000C30F8E71030F6E78A43026010BD0000C4
:1048C00030B50446008A85B00D464CF6FF710840AD
:1048D000E98801432182A1894EF6F3100140A8889E
:1048E0002A8910436A890A431043A081A08A4FF69F
:1048F000FF410840A9890143A1826846FFF75CFE99
:104900001948844201D1039800E00298A189090462
:1049100000EBC00101EB0010296801D5490000E05F
:104920008900B0FBF1F06422B0FBF2F109010B0940
:104930006FF018056B4300EB8300A3891D044FF053
:10494000320306D503EBC000B0FBF2F000F0070025
:1049500005E003EB0010B0FBF2F000F00F0008439D
:10496000208105B030BD0000003801408088C0F3D0
:1049700008007047FEE7490050EAC12018BF042034
:104980004A0D18BF40F0010040F2FF72B2EB515FD8
:1049900008BF40F00200012808BF052070473038EA
:1049A0000A2801D20120704700207047704700009C
:1049B00070B504460C48007878B10C48007860B9AE
:1049C0000B4D6888844203D3B4FBF0F000F012F87A
:1049D0006888B4FBF0F100FB11444FF47A70604337
:1049E000BDE8704000F00CB8640000205C000020BE
:1049F0001800002008B56A460821FDF7EBFC08BD49
:104A0000F8B54FF0E026002477690D49097800FBDE
:104A100001F56846FCF79AFFB069B1698142FCD0A4
:104A200002D2A0EB010002E0A7EB01021044044413
:104A30000846AC42F1D36846FCF7E2FFF8BD00003F
:104A400018000020224E234D234C4FF4FA773146B4
:104A5000286800F08BFA2860FBF7E8FB8046FCF73B
:104A6000BDFC2078401CC0B22070012801D1FEF7A7
:104A700093FCFCF7C3FC4046FBF7DCFB286800F026
:104A800049FA02460B4615A0FBF7E8FBFBF7CEFB05
:104A90008046FCF7A3FC2078401E10F0FF00207039
:104AA0000CD1FEF787FC1348008838B1FCF7A6FC50
:104AB0004046FBF7BFFBFEF74BFC04E0FCF79EFC17
:104AC0004046FBF7B7FB3846FFF772FFBFE7000031
:104AD0000AD7233C14000020AC000020666C6F61F4
:104AE000745F6E756DB5C4D6B5CEAA3A20252E3446
:104AF000660D0A007000002004490A885206FCD5A1
:104B0000024AC1B2121D11807047000000380140F6
:104B10000EB5334E002502AC4FF4FA770121304632
:104B2000FCF70FFD0022CDE900543B46114610462C
:104B3000FDF7C6FC02213046FCF703FD0022CDE95B
:104B400000543B4611461046FDF7BAFC042130469E
:104B5000FCF7F7FC0022CDE900543B461146104615
:104B6000FDF7AEFC08213046FCF7EBFC0022CDE956
:104B700000543B4611461046FDF7A2FC0121304689
:104B8000FCF7E1FC0022CDE900543B4611461046FB
:104B9000FDF796FC02213046FCF7D5FC0022CDE95A
:104BA00000543B4611461046FDF78AFC042130466E
:104BB000FCF7C9FC0022CDE900543B4611461046E3
:104BC000FDF77EFC08213046FCF7BDFC0022CDE954
:104BD00000543B4611461046FDF772FC9EE700006C
:104BE000001001408AB000F0F7F84FF4A060FCF725
:104BF00027FDFCF7ABFC4FF4E13000F01DF909A8EC
:104C0000FCF732FDFBF712FB0546FCF7E7FB234CF4
:104C10002078401CC1B22170012901D1FEF7BCFBF4
:104C2000FCF7ECFB2846FBF705FB002006AB09AAC6
:104C30000321059083E807004FF400723323184DD9
:104C4000CDE90232CDE9001504900346154A16A1BC
:104C5000A5F1C800FDF718F8FBF7E8FA0546FCF7E0
:104C6000BDFB2078401E10F0FF0121700CD1FEF733
:104C7000A1FB1048008838B1FCF7C0FB2846FBF7C1
:104C8000D9FAFEF765FB04E0FCF7B8FB2846FBF712
:104C9000D1FA09A8FCF7EEFEFEE70000AC00002008
:104CA000F0010020B94C00087374617274207461C3
:104CB000736B0000700000202DE9F0438BB0FCF70F
:104CC00023FB09A8FCF77EFFFCF76AFB012109AA78
:104CD0000846FCF769FEFBF7A9FA0446FCF77EFBE1
:104CE000DFF8BC9099F80000401CC2B289F800209F
:104CF000012A01D1FEF750FBFCF780FB2046FBF7B1
:104D000099FA00240326CDE9064609AD4FF00C08B8
:104D100024490895059404208DE803018027214843
:104D2000CDE903742346204A20A1C838FCF7ACFF24
:104D3000CDE9064620490895059405208DE8030134
:104D40001D48CDE9037400231C4A1DA1C838FCF797
:104D50009BFF09A91E48FFF765F8FBF767FA0446B1
:104D6000FCF73CFB99F80000401E10F0FF0289F8A8
:104D700000200ED1FEF71EFB1648008848B1FCF754
:104D80003DFB2046FBF756FAFEF7E2FA0BB0BDE812
:104D9000F083FCF733FB2046FBF74CFAF6E7000004
:104DA000AC000020B80A0020114B00086C6564308C
:104DB000207461736B000000800D0020454A0008DC
:104DC000666C6F61742074657374207461736B001A
:104DD000280100207000002010B56FF00400FFF7DC
:104DE00089FC10481049134C02681048B2FBF1F3DB
:104DF0000370B2FBF1F30E4A11681268B4FBF1F1D3
:104E000059434FF47A73B3FBF2F242804FF0E02043
:104E1000026942F0020202614161016941F001014F
:104E2000016110BD0000002000127A00180000206F
:104E30000052000840420F00F0B5054687B001213E
:104E400044F20400FFF7A0FB224E3046FFF7C6FCF9
:104E50007015ADF8100003248DF8124018201E4F75
:104E60008DF8130004A93846FCF71AFB3015ADF88D
:104E7000100004208DF8130004A93846FCF710FB3D
:104E800025208DF814008DF815408DF8164001206E
:104E90008DF8170005A8FCF7A1FB0020ADF8040071
:104EA000ADF80600ADF80800ADF80C000C20ADF828
:104EB0000A00009569463046FFF702FD012240F2E4
:104EC00025513046FFF7E3FC01213046FFF77CFC1B
:104ED00007B0F0BD003801400008014010B50029BE
:104EE0000AD00878002807D005487844FBF7B8FDB9
:104EF000002801D0002010BD0248784410BD0000F9
:104F0000F6030000EE0300000808A0F500114FEAC8
:104F10003101704743004FEAD30C4FEA3C0C434049
:104F20001FBF40070CF1605113F0FE4F70471CF09B
:104F3000006F03D100200CF0004170470CF00043DB
:104F400043EA507010B540EACC0000F071F800BFA1
:104F5000000000924FEA0001FFF7D6BF4FF000417A
:104F60004FF00000A1F500217047000090EA010F0A
:104F700048BF81F0004100F1AE80421A3CBF801A68
:104F800089184FEAD0524FF07F4C1CEA410FA2EB38
:104F9000D15318BF9CEA026F00F03B804FF0004CE9
:104FA0004CEA00204CEA012121FA03FC10EB0C0C26
:104FB0001ED202F1FF325FEA1C2040EBC25038BF24
:104FC00070471CF07F0F4FEA400C18BFBCF17F4FB9
:104FD00038BF7047C3F12003994008BF20F001009B
:104FE000BCF17F4F38BF7047A0F1C04000F066B8F9
:104FF0004FEA3C00000A40EBC25028BF1CF0FF0FF4
:105000004FEA400CE6D018BFBCF17F4F38BF704765
:10501000EAE79CEA026F05D010EA5C0F08BF00F0D7
:105020000040704710B500F003F800BF64FBBE3EBF
:105030000EF1020E2EF0030E5EF8044B244204D44F
:105040004FEA4102B2F17F4F11D84FEA4003B3F16A
:105050007F4F0CD80ED14FEAD07CB2F17F4F0CEBD2
:105060004C0C0CF1020C08BF4CEBD17C04E04FF06F
:10507000080C01E04FEAD17C0CEB4C0324FA03F45A
:1050800004F00704B4F1040C06D20EEB840CBDE866
:1050900010404CF0010C6047DFE80CF007080202FA
:1050A0004FF00040A0F5800010BD0846420018BF38
:1050B000D2F1807288BF00F0004010BDFF2141EAAC
:1050C000D050C0057047000090EA010F48BF81F042
:1050D00000413FF552AF421A04D882F00042A0EBE3
:1050E000020011444FEAD0524FF07F4C1CEA410FAE
:1050F000A2EBD15318BF9CEA026F4AD04FF0004C8C
:105100004CEA00204CEA012121FA03FCB0EB0C0C24
:105110000FD412F0FE0F36D05FEA4C001DD50012FE
:1051200040EBC25038BF70471CF03F0F18BF7047AC
:105130000BE0A2F101025FEA1C2040EBC25038BF35
:1051400070471CF07F0F18BF7047C3F120039940D0
:1051500014BF401E20F00100704780084FEA122360
:1051600008BF7047B0FA80FCA2EB0C02CCF1280C0F
:1051700060FA0CF093EA122F04BF00EBC2507047A4
:105180004FEAC3707047130A5FEADC1008BF70472C
:10519000F6E79CEA026F04D010EA5C0F08BF00201B
:1051A000704710B5FFF744FF40DFF63E81F0004046
:1051B0007047FBF7C3B90000481000200C00000046
:1051C00080000000481200200A0000008813002020
:1051D0000C00000080000000881500208000000006
:1051E00064000000881700201E0000000A00000074
:1051F000C81D00200C0000008000000040000000DE
:10520000E803000001000000C81F00200C0000009F
:105210008000000011000200640000005022002005
:105220000C0000008000000011000000024000009F
:10523000000000A00000000005400000000000C8C1
:10524000000000000C4000000000409C0000000036
:10525000194000000020BCBE0000000034400000E7
:10526000BFC91B8E00000004B5400000504BCFD0DA
:105270006607E2CF010000006C4100003E8251AAA7
:10528000DFEEA73401000000D9420000DCB5A0E247
:105290003A301F97FFFFFFFFB4450000FD25A0C86F
:1052A000E9A3C14FFFFFFFFFFF3F000000000080A8
:1052B00000000000FF3F0000000000800000000030
:1052C000FC52000800000020280100006C010008CA
:1052D0002454000828010020982F000088010008AD
:1052E0001C00000043000000F8FFFFFF0C0000005E
:1052F0000E0000000F0000002E00000000A24A0473
:105300000000000000000000010203040607080975
:105310000AD7233C0000000000000000000000004D
:105320000204060800000000010203040102030455
:10533000060708090000000000000000000000004F
:10534000000000000000000000000000000000005D
:10535000000000000000000000000000000000004D
:10536000000000000000000000000000000000003D
:10537000000000000000000000000000000000002D
:10538000000000000000000000000000000000001D
:10539000000000000000000000000000000000000D
:1053A00000000000000000000000000000000000FD
:1053B00000000000000000000000000000000000ED
:1053C00000000000000000000000000000000000DD
:1053D00000000000000000000000000000000000CD
:1053E00000000000000000000000000000000000BD
:1053F00000000000000000000000000000000000AD
:10540000000000000000000000000000000000009C
:10541000000000000000000000000000000000008C
:045420000000000088
:0400000508000131BD
:00000001FF
